{
  "contractName": "Face",
  "abi": [
    {
      "constant": true,
      "inputs": [],
      "name": "b",
      "outputs": [
        {
          "name": "",
          "type": "uint256"
        }
      ],
      "payable": false,
      "stateMutability": "view",
      "type": "function"
    },
    {
      "inputs": [
        {
          "name": "_b",
          "type": "uint256"
        }
      ],
      "payable": false,
      "stateMutability": "nonpayable",
      "type": "constructor"
    },
    {
      "payable": true,
      "stateMutability": "payable",
      "type": "fallback"
    },
    {
      "anonymous": false,
      "inputs": [
        {
          "indexed": false,
          "name": "datum",
          "type": "address"
        }
      ],
      "name": "Data1",
      "type": "event"
    },
    {
      "anonymous": false,
      "inputs": [
        {
          "indexed": false,
          "name": "a",
          "type": "uint256"
        }
      ],
      "name": "Hit",
      "type": "event"
    },
    {
      "anonymous": false,
      "inputs": [
        {
          "indexed": false,
          "name": "a",
          "type": "uint256"
        }
      ],
      "name": "Hitter",
      "type": "event"
    },
    {
      "constant": false,
      "inputs": [
        {
          "name": "a",
          "type": "uint256"
        }
      ],
      "name": "x",
      "outputs": [
        {
          "name": "",
          "type": "uint256"
        }
      ],
      "payable": false,
      "stateMutability": "nonpayable",
      "type": "function"
    },
    {
      "constant": false,
      "inputs": [
        {
          "name": "a",
          "type": "uint256"
        }
      ],
      "name": "y",
      "outputs": [],
      "payable": false,
      "stateMutability": "nonpayable",
      "type": "function"
    }
  ],
  "bytecode": "0x608060405234801561001057600080fd5b5060405160208061027883398101806040528101908080519060200190929190505050600181016000819055505061022b8061004d6000396000f300608060405260043610610057576000357c0100000000000000000000000000000000000000000000000000000000900463ffffffff1680633f4263ef1461009d5780634df7e3d0146100de5780636259e7e114610109575b7fdfbd041d9e9bba4bbf53e03af27b4d38f6e4d1fa96dedd0ce334528ecc5a66f960026040518082815260200191505060405180910390a1600260005401600081905550005b3480156100a957600080fd5b506100c860048036038101908080359060200190929190505050610136565b6040518082815260200191505060405180910390f35b3480156100ea57600080fd5b506100f361017c565b6040518082815260200191505060405180910390f35b34801561011557600080fd5b5061013460048036038101908080359060200190929190505050610182565b005b60007fdfbd041d9e9bba4bbf53e03af27b4d38f6e4d1fa96dedd0ce334528ecc5a66f960006040518082815260200191505060405180910390a160005482019050919050565b60005481565b7fdfbd041d9e9bba4bbf53e03af27b4d38f6e4d1fa96dedd0ce334528ecc5a66f960016040518082815260200191505060405180910390a17fd9c021c944b28e9d821532615415cc4e2388cceb277f1418bcf122c79297d77f816040518082815260200191505060405180910390a18060005401600081905550505600a165627a7a723058203f6e11d84e08dbd2dbe51f73f267b8d7d7fd57d401512a4b88d17bce1ce923910029",
  "source": "pragma solidity ^0.4.24;\n\ncontract Test {\n    uint public a;\n    Face public face;\n    constructor(uint _a) public {\n        a = _a;\n        face = new Face(_a);\n    }\n\n    event Data0(address datum);\n    function callThrough() public returns(bool) {\n        // emit Data0(address(this));\n        //bytes4 off = bytes4(keccak256(\"x(uint256)\"));\n        bool result = address(face).delegatecall(bytes4(keccak256(\"x(uint256)\")), 1);\n        return result;\n    }\n\n    function callForward() public returns(bool) {\n        bytes memory data = abi.encodePacked(bytes4(keccak256(\"y(uint256)\")), uint256(4));\n\n\n        bool result = address(face).call(data);\n        return result;\n    }\n\n\n\n    function callThrough2() public returns (uint256 response) {\n        address dest = address(face);\n        bytes4 callData4 = bytes4(keccak256(\"y()\"));\n        //uint gas = gasleft();\n\n        assembly {\n            let returnSize := 32\n            // calldatacopy(0xff, 0, calldatasize)\n            let off := delegatecall(gas, dest, 4, 4, 0, 0)\n            //switch _retval case 0 { revert(0,0) } default { return(0, returnSize) }\n        }\n    }\n\n    event Data2(bool success);\n\n    function guessWork() public {\n        bool success = delegatedFwd(address(face), \"0xa56dfe4a\");\n        emit Data2(success);\n    }\n\n\n    event Data4(bytes4 data);\n    function delegatedFwd(address _dst, bytes _calldata) public returns(bool b) {\n        bytes4 callData4 = bytes4(keccak256(\"y(uint256)\"));\n        emit Data4(callData4);\n\n        bytes memory jar = bytes(abi.encodePacked(callData4, uint256(10)));\n\n        assembly {\n            b := call(sub(gas, 10000), _dst, 0, add(jar, 0x20), mload(jar), 0, 0)\n        }\n    }\n}\n\ncontract Face {\n    uint public b;\n    constructor(uint _b) public {\n        b = _b + 1;\n    }\n\n    event Data1(address datum);\n\n    event Hit(uint a);\n    event Hitter(uint a);\n\n    function x(uint a) public returns(uint) {\n        // emit Data1(address(this))\n        emit Hit(0);\n        return a + b;\n    }\n\n    function y(uint256 a) public {\n        // emit Data1(address(this))\n        emit Hit(1);\n        emit Hitter(a);\n        b = b + a; \n    }\n\n    function() public payable {\n        emit Hit(2);\n        b = b + 2;\n    }\n}",
  "sourcePath": "/home/chris/dev/yahgwai/state-channel-insurance/contracts/Test.sol",
  "compiler": {
    "name": "solc",
    "version": "0.4.24+commit.e67f0147.Emscripten.clang"
  },
  "schemaVersion": "3.0.0-beta.0",
  "updatedAt": "2018-10-03T09:17:44.453Z"
}