{
  "contractName": "Insurance",
  "abi": [
    {
      "inputs": [
        {
          "name": "_excess",
          "type": "uint256"
        }
      ],
      "payable": false,
      "stateMutability": "nonpayable",
      "type": "constructor"
    },
    {
      "payable": true,
      "stateMutability": "payable",
      "type": "fallback"
    },
    {
      "anonymous": false,
      "inputs": [
        {
          "indexed": false,
          "name": "requester",
          "type": "address"
        },
        {
          "indexed": false,
          "name": "stateChannel",
          "type": "address"
        },
        {
          "indexed": false,
          "name": "application",
          "type": "address"
        },
        {
          "indexed": false,
          "name": "value",
          "type": "uint256"
        }
      ],
      "name": "CoverRequested",
      "type": "event"
    },
    {
      "constant": false,
      "inputs": [
        {
          "name": "amount",
          "type": "uint256"
        }
      ],
      "name": "withdraw",
      "outputs": [],
      "payable": false,
      "stateMutability": "nonpayable",
      "type": "function"
    },
    {
      "constant": false,
      "inputs": [
        {
          "name": "stateChannel",
          "type": "address"
        },
        {
          "name": "application",
          "type": "address"
        },
        {
          "name": "expiryTimestamp",
          "type": "uint256"
        }
      ],
      "name": "requestCover",
      "outputs": [],
      "payable": true,
      "stateMutability": "payable",
      "type": "function"
    },
    {
      "constant": false,
      "inputs": [
        {
          "name": "stateChannel",
          "type": "address"
        },
        {
          "name": "application",
          "type": "address"
        },
        {
          "name": "expiryTimestamp",
          "type": "uint256"
        }
      ],
      "name": "withdrawRequest",
      "outputs": [],
      "payable": false,
      "stateMutability": "nonpayable",
      "type": "function"
    },
    {
      "constant": false,
      "inputs": [
        {
          "name": "stateChannel",
          "type": "address"
        },
        {
          "name": "application",
          "type": "address"
        },
        {
          "name": "expiryTimestamp",
          "type": "uint256"
        }
      ],
      "name": "acceptCover",
      "outputs": [],
      "payable": false,
      "stateMutability": "nonpayable",
      "type": "function"
    },
    {
      "constant": false,
      "inputs": [
        {
          "name": "coverId",
          "type": "bytes32"
        }
      ],
      "name": "claim",
      "outputs": [],
      "payable": true,
      "stateMutability": "payable",
      "type": "function"
    },
    {
      "constant": false,
      "inputs": [
        {
          "name": "stateChannel",
          "type": "address"
        },
        {
          "name": "application",
          "type": "address"
        },
        {
          "name": "expiryTimestamp",
          "type": "uint256"
        },
        {
          "name": "callData",
          "type": "bytes"
        }
      ],
      "name": "compensate",
      "outputs": [],
      "payable": false,
      "stateMutability": "nonpayable",
      "type": "function"
    },
    {
      "constant": false,
      "inputs": [
        {
          "name": "coverId",
          "type": "bytes32"
        }
      ],
      "name": "expireCover",
      "outputs": [],
      "payable": false,
      "stateMutability": "nonpayable",
      "type": "function"
    }
  ],
  "bytecode": "0x608060405261a41060075534801561001657600080fd5b50604051602080610f2083398101806040528101908080519060200190929190505050336000806101000a81548173ffffffffffffffffffffffffffffffffffffffff021916908373ffffffffffffffffffffffffffffffffffffffff1602179055508060018190555050610e90806100906000396000f300608060405260043610610083576000357c0100000000000000000000000000000000000000000000000000000000900463ffffffff1680632e1a7d4d146100955780635c53e4ed146100c25780639222e86714610122578063b14efd2314610153578063bd66528a146101c0578063d2cfd97d146101e4578063db12f5f214610251575b34600660008282540192505081905550005b3480156100a157600080fd5b506100c060048036038101908080359060200190929190505050610304565b005b610120600480360381019080803573ffffffffffffffffffffffffffffffffffffffff169060200190929190803573ffffffffffffffffffffffffffffffffffffffff169060200190929190803590602001909291905050506103ba565b005b34801561012e57600080fd5b506101516004803603810190808035600019169060200190929190505050610602565b005b34801561015f57600080fd5b506101be600480360381019080803573ffffffffffffffffffffffffffffffffffffffff169060200190929190803573ffffffffffffffffffffffffffffffffffffffff16906020019092919080359060200190929190505050610728565b005b6101e2600480360381019080803560001916906020019092919050505061091d565b005b3480156101f057600080fd5b5061024f600480360381019080803573ffffffffffffffffffffffffffffffffffffffff169060200190929190803573ffffffffffffffffffffffffffffffffffffffff169060200190929190803590602001909291905050506109f3565b005b34801561025d57600080fd5b50610302600480360381019080803573ffffffffffffffffffffffffffffffffffffffff169060200190929190803573ffffffffffffffffffffffffffffffffffffffff16906020019092919080359060200190929190803590602001908201803590602001908080601f0160208091040260200160405190810160405280939291908181526020018383808284378201915050505050509192919290505050610bce565b005b6000809054906101000a900473ffffffffffffffffffffffffffffffffffffffff1673ffffffffffffffffffffffffffffffffffffffff163373ffffffffffffffffffffffffffffffffffffffff1614151561035f57600080fd5b600654811015151561037057600080fd5b3373ffffffffffffffffffffffffffffffffffffffff166108fc829081150290604051600060405180830381858888f193505050501580156103b6573d6000803e3d6000fd5b5050565b600033848484604051602001808573ffffffffffffffffffffffffffffffffffffffff1673ffffffffffffffffffffffffffffffffffffffff166c010000000000000000000000000281526014018473ffffffffffffffffffffffffffffffffffffffff1673ffffffffffffffffffffffffffffffffffffffff166c010000000000000000000000000281526014018373ffffffffffffffffffffffffffffffffffffffff1673ffffffffffffffffffffffffffffffffffffffff166c010000000000000000000000000281526014018281526020019450505050506040516020818303038152906040526040518082805190602001908083835b6020831015156104da57805182526020820191506020810190506020830392506104b5565b6001836020036101000a0380198251168184511680821785525050505050509050019150506040518091039020905034600260008360001916600019168152602001908152602001600020819055507f9d5787954cf287c427119adbf9f61299bc0d4108fa8275d3ac78b12c7f855b4b33858534604051808573ffffffffffffffffffffffffffffffffffffffff1673ffffffffffffffffffffffffffffffffffffffff1681526020018473ffffffffffffffffffffffffffffffffffffffff1673ffffffffffffffffffffffffffffffffffffffff1681526020018373ffffffffffffffffffffffffffffffffffffffff1673ffffffffffffffffffffffffffffffffffffffff16815260200182815260200194505050505060405180910390a150505050565b600080600560008460001916600019168152602001908152602001600020549150428211151561069a576040517f08c379a00000000000000000000000000000000000000000000000000000000081526004018080602001828103825260168152602001807f436f76657220686173206e6f7420657870697265642e0000000000000000000081525060200191505060405180910390fd5b6004600084600019166000191681526020019081526020016000205460036000856000191660001916815260200190815260200160002054019050600360008460001916600019168152602001908152602001600020600090556004600084600019166000191681526020019081526020016000206000905580600660008282540192505081905550505050565b60008033858585604051602001808573ffffffffffffffffffffffffffffffffffffffff1673ffffffffffffffffffffffffffffffffffffffff166c010000000000000000000000000281526014018473ffffffffffffffffffffffffffffffffffffffff1673ffffffffffffffffffffffffffffffffffffffff166c010000000000000000000000000281526014018373ffffffffffffffffffffffffffffffffffffffff1673ffffffffffffffffffffffffffffffffffffffff166c010000000000000000000000000281526014018281526020019450505050506040516020818303038152906040526040518082805190602001908083835b6020831015156108495780518252602082019150602081019050602083039250610824565b6001836020036101000a0380198251168184511680821785525050505050509050019150506040518091039020915060026000836000191660001916815260200190815260200160002054905080600654101515156108a757600080fd5b8060066000828254039250508190555080600360008460001916600019168152602001908152602001600020819055506002600083600019166000191681526020019081526020016000206000905582600560008460001916600019168152602001908152602001600020819055505050505050565b60015434111515610996576040517f08c379a00000000000000000000000000000000000000000000000000000000081526004018080602001828103825260108152602001807f457863657373206e6f7420706169642e0000000000000000000000000000000081525060200191505060405180910390fd5b60036000826000191660001916815260200190815260200160002054600460008360001916600019168152602001908152602001600020819055506003600082600019166000191681526020019081526020016000206000905550565b60008033858585604051602001808573ffffffffffffffffffffffffffffffffffffffff1673ffffffffffffffffffffffffffffffffffffffff166c010000000000000000000000000281526014018473ffffffffffffffffffffffffffffffffffffffff1673ffffffffffffffffffffffffffffffffffffffff166c010000000000000000000000000281526014018373ffffffffffffffffffffffffffffffffffffffff1673ffffffffffffffffffffffffffffffffffffffff166c010000000000000000000000000281526014018281526020019450505050506040516020818303038152906040526040518082805190602001908083835b602083101515610b145780518252602082019150602081019050602083039250610aef565b6001836020036101000a03801982511681845116808217855250505050505090500191505060405180910390209150600260008360001916600019168152602001908152602001600020549050600260008360001916600019168152602001908152602001600020600090553373ffffffffffffffffffffffffffffffffffffffff166108fc829081150290604051600060405180830381858888f19350505050158015610bc6573d6000803e3d6000fd5b505050505050565b6000806000806000805a95508873ffffffffffffffffffffffffffffffffffffffff168760405180828051906020019080838360005b83811015610c1f578082015181840152602081019050610c04565b50505050905090810190601f168015610c4c5780820380516001836020036101000a031916815260200191505b509150506000604051808303816000865af191505050338a8a8a604051602001808573ffffffffffffffffffffffffffffffffffffffff1673ffffffffffffffffffffffffffffffffffffffff166c010000000000000000000000000281526014018473ffffffffffffffffffffffffffffffffffffffff1673ffffffffffffffffffffffffffffffffffffffff166c010000000000000000000000000281526014018373ffffffffffffffffffffffffffffffffffffffff1673ffffffffffffffffffffffffffffffffffffffff166c010000000000000000000000000281526014018281526020019450505050506040516020818303038152906040526040518082805190602001908083835b602083101515610d805780518252602082019150602081019050602083039250610d5b565b6001836020036101000a038019825116818451168082178552505050505050905001915050604051809103902094506004600086600019166000191681526020019081526020016000205493506007545a87030192503a8302915081841115610deb57819050610def565b8390505b808403600460008760001916600019168152602001908152602001600020819055503373ffffffffffffffffffffffffffffffffffffffff166108fc829081150290604051600060405180830381858888f19350505050158015610e57573d6000803e3d6000fd5b50505050505050505050505600a165627a7a723058209bfd1cbbec4b5adbc2f98dfa2948b4d77f7185d0e6148d95f541a77daa63d58e0029",
  "source": "pragma solidity ^0.4.23;\n\ncontract Insurance {\n    address owner;\n    uint excess;\n    mapping (bytes32 => uint) requests;\n    mapping (bytes32 => uint) accepted;\n    mapping (bytes32 => uint) claimsInProgress;\n    mapping (bytes32 => uint) coverExpiries;\n\n    uint freeCapital;\n\n    constructor(uint _excess) public {\n        owner = msg.sender;\n        excess = _excess;\n    }\n\n    // owner can deposit and retrive funds\n    function() public payable {\n        freeCapital += msg.value;\n    }\n\n    function withdraw(uint amount) public {\n        require(msg.sender == owner);\n        require(amount >= freeCapital);\n\n        address(msg.sender).transfer(amount);\n    }\n\n    // TODO: add a timer for cover requests - the insurance provider needs to re-allocate\n\n    // TODO: add all events\n    event CoverRequested(address requester, address stateChannel, address application, uint value);\n\n    function requestCover(address stateChannel, address application, uint expiryTimestamp) public payable {\n        // create a request for this user/stateChannel/application\n        // TODO: can cover be requested multiple times? if so just increase the value of the request?\n        // TODO: include value in this hash?\n        // TODO: consider other replays\n        bytes32 coverId = keccak256(abi.encodePacked(msg.sender, stateChannel, application, expiryTimestamp));\n        requests[coverId] = msg.value;\n        emit CoverRequested(msg.sender, stateChannel, application, msg.value);\n    }\n\n    function withdrawRequest(address stateChannel, address application, uint expiryTimestamp) public {\n        bytes32 coverId = keccak256(abi.encodePacked(msg.sender, stateChannel, application, expiryTimestamp));\n        uint value = requests[coverId];\n\n        // delete the record and refund the value\n        delete requests[coverId];\n        msg.sender.transfer(value);\n    }\n\n    function acceptCover(address stateChannel, address application, uint expiryTimestamp) public {\n        // the insurer has verified the cover request, and has decided to accept it\n        // TODO: what happends when lookup doesnt exist\n\n        // accept it and remove the request\n        bytes32 coverId = keccak256(abi.encodePacked(msg.sender, stateChannel, application, expiryTimestamp));\n        uint coverAmount = requests[coverId];\n        // can the insurer cover this amount\n        require(freeCapital >= coverAmount);\n        \n        // remove the capital\n        freeCapital -= coverAmount;\n        // accept the cover\n        accepted[coverId] = coverAmount;\n        delete requests[coverId];\n\n        // set the expiry time\n        coverExpiries[coverId] = expiryTimestamp;\n    }\n\n    // TODO: sure up this whole contract - currently we can do things like\n    // TODO: claim after the cover has run out - this isnt a problem since they have their\n    // TODO: cover revoked at any time - but it should still be stopped for ease of use and understanding\n\n    // pay the excess, and set a claim\n    function claim(bytes32 coverId) public payable {\n        // TODO: message formatting\n        require(msg.value > excess, \"Excess not paid.\");\n\n        claimsInProgress[coverId] = accepted[coverId];\n        delete accepted[coverId];\n    }\n\n    // TODO: increase this, also make it constant\n    uint compensationExtraGas = 42000;\n\n    // TODO: work out the costs in this function\n    function compensate(address stateChannel, address application, uint expiryTimestamp, bytes callData) public {\n        // measure gas usage\n        uint startGas = gasleft();\n        \n        // forward the call\n        application.call(callData);\n        \n        // does the sender have a claim in progress?\n        // TODO: keep this inside or outside the gas measurement\n        bytes32 coverId = keccak256((abi.encodePacked(msg.sender, stateChannel, application, expiryTimestamp)));\n        uint remainingWei = claimsInProgress[coverId];\n\n        // the amount to claim is the amount used so far + some overhead (eg. initial transaction, and final send)\n        uint gasClaim = (startGas - gasleft()) + compensationExtraGas;\n        uint weiClaim = gasClaim * tx.gasprice;\n        // find the amount to refund from the claim\n        uint refundWei;\n        if(remainingWei > weiClaim) refundWei = weiClaim;\n        else refundWei = remainingWei;\n\n        // reduce the current claim\n        claimsInProgress[coverId] = remainingWei - refundWei;\n\n        // make the refund\n        address(msg.sender).transfer(refundWei);\n    }\n\n    function callFwd(address destination, bytes callData) private returns (bool success) {\n        assembly {\n            success := call(sub(gas, 10000), destination, 0, add(callData, 0x20), mload(callData), 0, 0)\n        }\n    }\n\n    function expireCover(bytes32 coverId) public {\n        uint expiry = coverExpiries[coverId];\n        require(expiry > now, \"Cover has not expired.\");\n\n        // TODO: safe math\n        uint amount = accepted[coverId] + claimsInProgress[coverId];\n        delete accepted[coverId];\n        delete claimsInProgress[coverId];\n        \n        freeCapital += amount;\n    }\n}",
  "sourcePath": "/home/chris/dev/yahgwai/state-channel-insurance/contracts/Insurance.sol",
  "compiler": {
    "name": "solc",
    "version": "0.4.24+commit.e67f0147.Emscripten.clang"
  },
  "schemaVersion": "3.0.0-beta.0",
  "updatedAt": "2018-10-03T09:17:44.449Z"
}