{
  "contractName": "Test",
  "abi": [
    {
      "constant": true,
      "inputs": [],
      "name": "a",
      "outputs": [
        {
          "name": "",
          "type": "uint256"
        }
      ],
      "payable": false,
      "stateMutability": "view",
      "type": "function"
    },
    {
      "constant": true,
      "inputs": [],
      "name": "face",
      "outputs": [
        {
          "name": "",
          "type": "address"
        }
      ],
      "payable": false,
      "stateMutability": "view",
      "type": "function"
    },
    {
      "inputs": [
        {
          "name": "_a",
          "type": "uint256"
        }
      ],
      "payable": false,
      "stateMutability": "nonpayable",
      "type": "constructor"
    },
    {
      "anonymous": false,
      "inputs": [
        {
          "indexed": false,
          "name": "datum",
          "type": "address"
        }
      ],
      "name": "Data0",
      "type": "event"
    },
    {
      "anonymous": false,
      "inputs": [
        {
          "indexed": false,
          "name": "success",
          "type": "bool"
        }
      ],
      "name": "Data2",
      "type": "event"
    },
    {
      "anonymous": false,
      "inputs": [
        {
          "indexed": false,
          "name": "data",
          "type": "bytes4"
        }
      ],
      "name": "Data4",
      "type": "event"
    },
    {
      "constant": false,
      "inputs": [],
      "name": "callThrough",
      "outputs": [
        {
          "name": "",
          "type": "bool"
        }
      ],
      "payable": false,
      "stateMutability": "nonpayable",
      "type": "function"
    },
    {
      "constant": false,
      "inputs": [],
      "name": "callForward",
      "outputs": [
        {
          "name": "",
          "type": "bool"
        }
      ],
      "payable": false,
      "stateMutability": "nonpayable",
      "type": "function"
    },
    {
      "constant": false,
      "inputs": [],
      "name": "callThrough2",
      "outputs": [
        {
          "name": "response",
          "type": "uint256"
        }
      ],
      "payable": false,
      "stateMutability": "nonpayable",
      "type": "function"
    },
    {
      "constant": false,
      "inputs": [],
      "name": "guessWork",
      "outputs": [],
      "payable": false,
      "stateMutability": "nonpayable",
      "type": "function"
    },
    {
      "constant": false,
      "inputs": [
        {
          "name": "_dst",
          "type": "address"
        },
        {
          "name": "_calldata",
          "type": "bytes"
        }
      ],
      "name": "delegatedFwd",
      "outputs": [
        {
          "name": "b",
          "type": "bool"
        }
      ],
      "payable": false,
      "stateMutability": "nonpayable",
      "type": "function"
    }
  ],
  "bytecode": "0x608060405234801561001057600080fd5b50604051602080610a778339810180604052810190808051906020019092919050505080600081905550806100436100b0565b80828152602001915050604051809103906000f080158015610069573d6000803e3d6000fd5b50600160006101000a81548173ffffffffffffffffffffffffffffffffffffffff021916908373ffffffffffffffffffffffffffffffffffffffff160217905550506100c0565b604051610278806107ff83390190565b610730806100cf6000396000f300608060405260043610610083576000357c0100000000000000000000000000000000000000000000000000000000900463ffffffff1680630dbe671f146100885780631c582cf7146100b35780637cefbb641461010a578063922eeb1a14610139578063d847f99d14610164578063e4fab06f1461017b578063f7bdaa271461021c575b600080fd5b34801561009457600080fd5b5061009d61024b565b6040518082815260200191505060405180910390f35b3480156100bf57600080fd5b506100c8610251565b604051808273ffffffffffffffffffffffffffffffffffffffff1673ffffffffffffffffffffffffffffffffffffffff16815260200191505060405180910390f35b34801561011657600080fd5b5061011f610277565b604051808215151515815260200191505060405180910390f35b34801561014557600080fd5b5061014e61035f565b6040518082815260200191505060405180910390f35b34801561017057600080fd5b506101796103d3565b005b34801561018757600080fd5b50610202600480360381019080803573ffffffffffffffffffffffffffffffffffffffff169060200190929190803590602001908201803590602001908080601f0160208091040260200160405190810160405280939291908181526020018383808284378201915050505050509192919290505050610476565b604051808215151515815260200191505060405180910390f35b34801561022857600080fd5b506102316105ad565b604051808215151515815260200191505060405180910390f35b60005481565b600160009054906101000a900473ffffffffffffffffffffffffffffffffffffffff1681565b600080600160009054906101000a900473ffffffffffffffffffffffffffffffffffffffff1673ffffffffffffffffffffffffffffffffffffffff1660405180807f782875696e743235362900000000000000000000000000000000000000000000815250600a01905060405180910390207c0100000000000000000000000000000000000000000000000000000000900460016040518263ffffffff167c0100000000000000000000000000000000000000000000000000000000028152600401808260ff168152602001915050600060405180830381865af49250505090508091505090565b6000806000600160009054906101000a900473ffffffffffffffffffffffffffffffffffffffff16915060405180807f79282900000000000000000000000000000000000000000000000000000000008152506003019050604051809103902090506020600080600480865af45050505090565b6000610436600160009054906101000a900473ffffffffffffffffffffffffffffffffffffffff166040805190810160405280600a81526020017f3078613536646665346100000000000000000000000000000000000000000000815250610476565b90507f72a84bf76fb87696ac46a6da9073a4710d67f787a7db600ef7a17a1c68aed00e81604051808215151515815260200191505060405180910390a150565b600080606060405180807f792875696e743235362900000000000000000000000000000000000000000000815250600a019050604051809103902091507faa40331cd2687dbcdfaf395b17535707fa6cd1638f10e9351fd13cb51bf8ff048260405180827bffffffffffffffffffffffffffffffffffffffffffffffffffffffff19167bffffffffffffffffffffffffffffffffffffffffffffffffffffffff1916815260200191505060405180910390a181600a60405160200180837bffffffffffffffffffffffffffffffffffffffffffffffffffffffff19167bffffffffffffffffffffffffffffffffffffffffffffffffffffffff191681526004018281526020019250505060405160208183030381529060405290506000808251602084016000896127105a03f19250505092915050565b60006060600060405180807f792875696e743235362900000000000000000000000000000000000000000000815250600a0190506040518091039020600460405160200180837bffffffffffffffffffffffffffffffffffffffffffffffffffffffff19167bffffffffffffffffffffffffffffffffffffffffffffffffffffffff19168152600401828152602001925050506040516020818303038152906040529150600160009054906101000a900473ffffffffffffffffffffffffffffffffffffffff1673ffffffffffffffffffffffffffffffffffffffff168260405180828051906020019080838360005b838110156106b857808201518184015260208101905061069d565b50505050905090810190601f1680156106e55780820380516001836020036101000a031916815260200191505b509150506000604051808303816000865af191505090508092505050905600a165627a7a7230582059602055ba5873c846fb577799592d6cc5791ca96202f2ce022817bc5d0468340029608060405234801561001057600080fd5b5060405160208061027883398101806040528101908080519060200190929190505050600181016000819055505061022b8061004d6000396000f300608060405260043610610057576000357c0100000000000000000000000000000000000000000000000000000000900463ffffffff1680633f4263ef1461009d5780634df7e3d0146100de5780636259e7e114610109575b7fdfbd041d9e9bba4bbf53e03af27b4d38f6e4d1fa96dedd0ce334528ecc5a66f960026040518082815260200191505060405180910390a1600260005401600081905550005b3480156100a957600080fd5b506100c860048036038101908080359060200190929190505050610136565b6040518082815260200191505060405180910390f35b3480156100ea57600080fd5b506100f361017c565b6040518082815260200191505060405180910390f35b34801561011557600080fd5b5061013460048036038101908080359060200190929190505050610182565b005b60007fdfbd041d9e9bba4bbf53e03af27b4d38f6e4d1fa96dedd0ce334528ecc5a66f960006040518082815260200191505060405180910390a160005482019050919050565b60005481565b7fdfbd041d9e9bba4bbf53e03af27b4d38f6e4d1fa96dedd0ce334528ecc5a66f960016040518082815260200191505060405180910390a17fd9c021c944b28e9d821532615415cc4e2388cceb277f1418bcf122c79297d77f816040518082815260200191505060405180910390a18060005401600081905550505600a165627a7a723058203f6e11d84e08dbd2dbe51f73f267b8d7d7fd57d401512a4b88d17bce1ce923910029",
  "source": "pragma solidity ^0.4.24;\n\ncontract Test {\n    uint public a;\n    Face public face;\n    constructor(uint _a) public {\n        a = _a;\n        face = new Face(_a);\n    }\n\n    event Data0(address datum);\n    function callThrough() public returns(bool) {\n        // emit Data0(address(this));\n        //bytes4 off = bytes4(keccak256(\"x(uint256)\"));\n        bool result = address(face).delegatecall(bytes4(keccak256(\"x(uint256)\")), 1);\n        return result;\n    }\n\n    function callForward() public returns(bool) {\n        bytes memory data = abi.encodePacked(bytes4(keccak256(\"y(uint256)\")), uint256(4));\n\n\n        bool result = address(face).call(data);\n        return result;\n    }\n\n\n\n    function callThrough2() public returns (uint256 response) {\n        address dest = address(face);\n        bytes4 callData4 = bytes4(keccak256(\"y()\"));\n        //uint gas = gasleft();\n\n        assembly {\n            let returnSize := 32\n            // calldatacopy(0xff, 0, calldatasize)\n            let off := delegatecall(gas, dest, 4, 4, 0, 0)\n            //switch _retval case 0 { revert(0,0) } default { return(0, returnSize) }\n        }\n    }\n\n    event Data2(bool success);\n\n    function guessWork() public {\n        bool success = delegatedFwd(address(face), \"0xa56dfe4a\");\n        emit Data2(success);\n    }\n\n\n    event Data4(bytes4 data);\n    function delegatedFwd(address _dst, bytes _calldata) public returns(bool b) {\n        bytes4 callData4 = bytes4(keccak256(\"y(uint256)\"));\n        emit Data4(callData4);\n\n        bytes memory jar = bytes(abi.encodePacked(callData4, uint256(10)));\n\n        assembly {\n            b := call(sub(gas, 10000), _dst, 0, add(jar, 0x20), mload(jar), 0, 0)\n        }\n    }\n}\n\ncontract Face {\n    uint public b;\n    constructor(uint _b) public {\n        b = _b + 1;\n    }\n\n    event Data1(address datum);\n\n    event Hit(uint a);\n    event Hitter(uint a);\n\n    function x(uint a) public returns(uint) {\n        // emit Data1(address(this))\n        emit Hit(0);\n        return a + b;\n    }\n\n    function y(uint256 a) public {\n        // emit Data1(address(this))\n        emit Hit(1);\n        emit Hitter(a);\n        b = b + a; \n    }\n\n    function() public payable {\n        emit Hit(2);\n        b = b + 2;\n    }\n}",
  "sourcePath": "/home/chris/dev/yahgwai/state-channel-insurance/contracts/Test.sol",
  "compiler": {
    "name": "solc",
    "version": "0.4.24+commit.e67f0147.Emscripten.clang"
  },
  "schemaVersion": "3.0.0-beta.0",
  "updatedAt": "2018-10-03T09:17:44.456Z"
}